:020000040000FA
:1000000000008A110B2A0034F200030E8301F10074
:100010000A088A01F000040883120313CA0083123D
:100020000313840070088A008301710E8300F20EAE
:10003000720E0900A020831203138601831203139A
:10004000A001A101AE2183120313A00A0319A10A82
:1000500020080839031D0130A200220800300319CE
:100060000130A300A200220C0318392883120313C5
:100070008613031C3E28831203138617831203136F
:100080003C0883120313A200831203133D0883125A
:100090000313A30000302302031D502880302202E6
:1000A000031C2228F0308312031306058312031366
:1000B000A200831203133B0883120313A30022043C
:1000C000831203138600143083120313A000A101CE
:1000D0008312031306178312031320082104031944
:1000E0009B28831203138613C02083120313A300DB
:1000F0007F08A20000302302031D802881302202E5
:10010000031C9028831203132108FE39031D8C2839
:100110000230A0070318A10A8312031386176B2865
:10012000831203132008210403196B28FF30A00752
:10013000031CA1036B288312031306132228080053
:10014000831203138B018B13831603139C018117F6
:100150000330850086018312031386018501033075
:10016000831603139B0007309C0001308312031396
:100170009F008030831603139F0040308F000800DB
:1001800083120313B001B101B201B301B401B5018F
:10019000831203139F113230FF0000307F2183123E
:1001A0000313B601283083120313360203184329C0
:1001B000831203131F15831203131F19DB281E0854
:1001C00083120313BA00B700B801B90183160313F1
:1001D0001E0883120313B700B8010030B7043A08B1
:1001E000B80401303802031DF7282C3037020318F9
:1001F000FD280030FF0000307E29831203133408ED
:1002000035040319352938083502031D0929370833
:10021000340203181B298312031334083702B90070
:100220003508031C350A3802BA003908B0073A0805
:1002300003183A0FB1078312031335083802031D60
:10024000232934083702031835298312031337088A
:100250003402B9003808031C380A3502BA003908DC
:10026000B2073A0803183A0FB3078312031337088B
:10027000B4003808B5000530FF0000307F2183123C
:100280000313B60AD22883120313B6018312031391
:100290009F1D4D2983120313B60A831203133608D8
:1002A000003003190130B700B600360C03185B2983
:1002B000831203139F11031C6029831203139F15DC
:1002C000831203139F1D692983120313B401B5011F
:1002D000CB288312031331083302031D7129300820
:1002E000320203187929831203133208FF003308FE
:1002F0007E29831203133008FF003108080083129F
:100300000313AF007F08AE00831203132E082F04DF
:1003100003198F29FF30AE07031CAF03842908009F
:1003200083120313AB007F08AA000314AB1F031052
:10033000031CA2292A09AC002B09AD00AC0A031941
:10034000AD0AA829831203132A08AC002B08AD00BC
:10035000831203132C08FF002D0808000F308312AE
:100360000313060583120313A400FF308312031343
:10037000BB00BC01BD0183120313A501043083122D
:10038000031325020318FF29F03083120313060517
:1003900083120313A6002504831203138600C020D2
:1003A00083120313A7007F08A600831203133C08DF
:1003B00083120313A800831203133D08831203134F
:1003C000A90027082902031DE72926082802031887
:1003D000FB2983120313260883120313BC00831224
:1003E0000313270883120313BD0083120313250888
:1003F00083120313BB0083120313A50ABE29F03036
:1004000083120313060583120313A5002404831229
:10041000031386000800D330FE000230FF00803056
:100420008A110000B2228A11000083120313BF0058
:100430007F08BE00D530C0000230C1008312031314
:100440003E08C2003F08C300FF30BE07031CBF03C5
:100450004208430403199B2A04304007C200C30129
:10046000C30D4108C3074208FE004308FF00803067
:100470008A110000B2228A11000083120313C50002
:100480007F08C4004008FE004108FF0080308A1148
:100490000000B2228A11000083120313C700C300B8
:1004A0007F08C600C20002304007C200C301C30D6E
:1004B0004108C3074208FE004308FF0080308A114C
:1004C0000000B2228A11000083120313C300C90086
:1004D0007F08C200C800831203134408C8004508FF
:1004E000C900FF30C407031CC503480849040319A9
:1004F000942A4608FE004708FF0080308A11000059
:100500009F228A11000083120313C800420884004E
:1005100083134318831748088000C60A0319C70AC3
:10052000C20A0319C30A6B2A063083120313C007D9
:100530000318C10A1E2A8A1100001A280800003A6E
:100540000319A62A803A0319AD2A00347E088400D4
:1005500083137F188317000808007F088A007E082D
:1005600082000800003A0319BA2A803A0319C42A03
:10057000FF0100347E08840083137F18831700086E
:10058000FF00840A000808008A110000AD22FD0067
:10059000FE0FFF03FF0A8A110000AD22FC007D0858
:1005A000FF007C08080001340034033400344B346D
:0605B000003401340034A8
:02400E00503F21
:02401000FFFFB0
:00000001FF
